:020000040800F2
:10000000B812002099020008D53B0008B903000887
:10001000FD3A00088D2700086B4900080000000029
:10002000000000000000000000000000FB4100088C
:10003000593900080000000007030008A943000820
:10004000B3020008B3020008B3020008B3020008BC
:10005000B3020008B3020008B3020008B3020008AC
:10006000B3020008B3020008B3020008B30200089C
:10007000B3020008B3020008B3020008B30200088C
:10008000B3020008B3020008B3020008B30200087C
:1000900091280008B3020008B3020008B302000868
:1000A000B3020008B3020008B3020008B30200085C
:1000B000B3020008B3020008B3020008B30200084C
:1000C000B3020008B3020008B3020008B30200083C
:1000D000B3020008E1440008494500083D46000815
:1000E000B3020008B3020008B3020008B30200081C
:1000F000B3020008B3020008B3020008B30200080C
:10010000B3020008B3020008B3020008B3020008FB
:10011000B3020008B3020008B3020008B3020008EB
:10012000B3020008B3020008B3020008B3020008DB
:10013000B3020008B3020008B3020008B3020008CB
:10014000952B0008B3020008B3020008B3020008B0
:10015000B3020008B3020008B3020008B3020008AB
:10016000B3020008B3020008B3020008B30200089B
:10017000B3020008B3020008B3020008B30200088B
:10018000B3020008B302000800F002F800F075F8AE
:100190000AA090E8000C82448344AAF10107DA45E2
:1001A00001D100F06AF8AFF2090EBAE80F0013F0BF
:1001B000010F18BFFB1A43F001031847B4BE00003B
:1001C000D4BE00000A444FF0000C10F8013B13F0BD
:1001D000070408BF10F8014B1D1108BF10F8015BA0
:1001E000641E05D010F8016B641E01F8016BF9D193
:1001F00013F0080F1EBF10F8014BAD1C0C1B09D1EA
:100200006D1E58BF01F801CBFAD505E014F8016B5B
:1002100001F8016B6D1EF9D59142D6D370470000ED
:100220000023002400250026103A28BF78C1FBD8FF
:10023000520728BF30C148BF0B60704766290AF0DB
:10024000CF83642900F0FA81782900F033820020FE
:1002500070471FB50AF0B7FB00F03AFF040000201A
:10026000002109F0DFFF401C60600020002109F040
:10027000C3FFE0601FBD10B510BD01F0B9F8114615
:10028000FFF7E7FF02F020FA01F062FB03B4FFF78B
:10029000F2FF03BC04F09FFF09488047094800476C
:1002A000FEE7FEE7FEE7FEE7FEE7FEE7FEE7FEE726
:1002B000FEE7FEE704480549054A064B7047000083
:1002C0007944000889010008B80C0020B812002009
:1002D000B80E0020B80E0020EFF3108072B6704701
:1002E00080F310887047424A1368012B04D04FF006
:1002F000010313603F4A10603F4A11603F484FF0CE
:10030000805101607047EFF3108272B6384801687F
:1003100051B34FF0000101603648016891B1EFF32D
:1003200009811EF0100F08BF21ED108B21E9F00F9D
:100330004FF000041EF0100F08BF012441F8044DD7
:10034000006801602C490968096808C9B1E8F00F24
:10035000002B18BFB1EC108B81F309884EF0100E02
:10036000002B18BF2EF0100E82F310884EF0040EF2
:10037000704721490860EFF3148222F0040282F3EF
:1003800014881C494FF00000086019494FF0010023
:1003900008601B481B49D0F8002041EA02010160B7
:1003A00016484FF08051016017480068006880F3DC
:1003B000088861B662B670471EF0040F0CBFEFF3F9
:1003C0000880EFF3098020E9F00F40F804ED40F8D1
:1003D00004ED1EF0040F0CBF80F3088880F3098839
:1003E00000B507F029F95DF804EB4EF0040E7047F4
:1003F000B8010020B0010020B401002004ED00E0AD
:1004000020ED00E00000FFFF08ED00E0DFED300A26
:10041000B5EEC00A60EE200ABDEEE01A11EE100A39
:10042000F1EE10FA38BF401E00EE100A9FED291AB7
:10043000B8EEC00A70EEC00A20EE810ABCEEC00A17
:1004400010EE100A00EE100A0028B8EEC00A10EEF6
:10045000810AB8BF002004DBB0F5807FC8BF4FF42D
:1004600080701D4960EE000AB6EE001ADFED1C2A0E
:100470009FED1A2A60EE011A60EE225A20EE813AB0
:1004800020EE022A21EEA01A01EB800073EE655ADD
:1004900062EE202AB7EE006A33EE003AD0EC043A5E
:1004A00076EE611A71EE600A35EEE20A33EE413AF9
:1004B00032EEC21A70EEA10A20EE230A64EE831A0D
:1004C00004EE200A45EE011A31EE800A7047000062
:1004D00083F9223E00008043F4B00008ABAA2A3E14
:1004E000ABAAAA3EDFED300AB5EEC00A60EE200AE4
:1004F000BDEEE01A11EE100AF1EE10FA38BF401E00
:1005000000EE100A9FED291AB8EEC00A70EEC00A7C
:1005100020EE810ABCEEC00A10EE100A00EE100AAE
:100520000028B8EEC00A10EE810AB8BF002004DB34
:10053000B0F5807FC8BF4FF480701D4960EE000A9F
:10054000B6EE001ADFED1C2A9FED1A2A60EE011AA2
:1005500060EE225A20EE813A20EE022A21EEA01A05
:1005600001EB800073EE655A62EE202AB7EE006A56
:1005700033EE003AD0EC043A76EE611A71EE600A7E
:1005800035EEE20A33EE413A32EEC21A70EEA10ABB
:1005900020EE230A64EE831A04EE200A45EE011AC7
:1005A00031EE800A7047000083F9223E000080434C
:1005B00004B50008ABAA2A3EABAAAA3E0FB4044970
:1005C00010B503AA029800F0DBFC10BC5DF814FB28
:1005D000040000202DE9F0410E4604460020206270
:1005E0002046E168884730B3252805D0D4E90121A9
:1005F0009047206A401CF2E7E168204600278847C0
:10060000050018D0A5F14100192802D820354FF473
:1006100000673246294620462760FFF70FFE40B1AB
:10062000012804D0F61D26F007060836D8E7361D47
:10063000D6E72846DAE7206ABDE8F0812DE9F041E7
:100640000646002410687529314616A510D0AFF370
:100650000080002802DA404213A507E031688A07CB
:1006600001D512A502E0490704D511A5012401E036
:10067000AFF3008000210A2206F1240709E0B0FB55
:10068000F2FCB0FBF2F302FB1C0030307854184649
:10069000491C0028F3D123462A463046BDE8F041E4
:1006A00000F005BA000000002D0000002B00000043
:1006B0002000000070B504460D4621461068AFF3D7
:1006C00000802188090502D50F4A7A4402E00E4ACB
:1006D0007A440E32002104F1240305E000F00F06F5
:1006E0000009965D5E54491C0028F7D1207800234C
:1006F000000704D5702D02D009B102231132204623
:10070000BDE8704000F0D3B942B2000070B50646B3
:1007100000F0BEF90468054630460A22002100F0C8
:1007200093FC2C6070BD40EA010310B59B070FD10C
:10073000042A0DD310C808C9121F9C42F8D020BA51
:1007400019BA884201D9012010BD4FF0FF3010BD09
:100750001AB1D30703D0521C07E0002010BD10F8D7
:10076000013B11F8014B1B1B07D110F8013B11F89D
:10077000014B1B1B01D1921EF1D1184610BD40EA5E
:100780000103024630B59B0710D14FF0013400E061
:1007900008C208C91D1B9D4315EAC41FF8D013F0F9
:1007A000FF0102F8011B0DD01B0AF8E711F8013B0D
:1007B000002B02F8013B05D011F8013B002B02F899
:1007C000013BF3D130BD10B5431C02E010F8011B12
:1007D00071B18107FAD14FF0013202C88C1A8C43F3
:1007E00014EAC211F9D0C01A0A0603D0C01E10BD07
:1007F000C01A10BD0A0401D0801E10BD0902FCD031
:10080000401E10BD40EA010370B59B072ED14FF08A
:100810000136042A2AD308C810C99D1B9D43121F04
:1008200015EAC61517D0D8B2E1B2401A50EA0561F0
:1008300010D198B2A1B2401A50EA05410AD123F072
:100840007F4024F07F41401A50EA052102D1180E62
:10085000A0EB146070BDA342DBD018BA21BA884265
:1008600001D9012070BD4FF0FF3070BD0AB90020E2
:1008700070BD10F8013B11F8014B63B1A3420AD1DE
:10088000521E08D010F8013B11F8014B1BB1A342D6
:1008900001D1521EEDD1181B70BD421E12F8013F4E
:1008A000002BFBD111F8013B002B02F8013BF9D1E1
:1008B0007047032A40F2308010F0030C00F01580DE
:1008C00011F8013BBCF1020F624498BF11F801CB53
:1008D00000F8013B38BF11F8013BA2F1040298BFB8
:1008E00000F801CB38BF00F8013B11F0030300F022
:1008F0002580083AC0F0088051F8043B083A51F8C6
:1009000004CBA0E80810F5E7121D5CBF51F8043BCA
:1009100040F8043BAFF30080D20724BF11F8013B3D
:1009200011F801CB48BF11F8012B24BF00F8013B9F
:1009300000F801CB48BF00F8012B704710B5203AF2
:10094000C0F00B80B1E81850203AA0E81850B1E888
:100950001850A0E81850BFF4F5AF5FEA027C24BF3E
:10096000B1E81850A0E8185044BF18C918C0BDE835
:1009700010405FEA827C24BF51F8043B40F8043BFE
:1009800008BF7047D20728BF31F8023B48BF11F8B3
:10099000012B28BF20F8023B48BF00F8012B70470D
:1009A0004FF000020429C0F0128010F0030C00F098
:1009B0001B80CCF1040CBCF1020F18BF00F8012B16
:1009C000A8BF20F8022BA1EB0C0100F00DB85FEAE4
:1009D000C17C24BF00F8012B00F8012B48BF00F8B0
:1009E000012B70474FF0000200B51346944696461F
:1009F000203922BFA0E80C50A0E80C50B1F1200132
:100A0000BFF4F7AF090728BFA0E80C5048BF0CC0DF
:100A10005DF804EB890028BF40F8042B08BF70473D
:100A200048BF20F8022B11F0804F18BF00F8012BAF
:100A3000704710B5044610F0030F08BF11F0030F04
:100A400040F015804FF0013E121FC0F20E8051F8A9
:100A5000043BA3EB0E0C2CEA030C1CEACE1C08BFD3
:100A600040F8043BF0D0A1F1040102F10402521E4F
:100A700008DB11F8013B002B00F8013BF7D11146D0
:100A8000FFF78EFF204610BD70477047704700008B
:100A900000487047580C002010B5FFF7F9FF0068B8
:100AA00010BD10B50446FFF7F3FF046010BD2DE93B
:100AB000F0470D4699469246044600F12408016825
:100AC000880604D5E06921F01001216000E00120D2
:100AD000A84201DD471B00E00027A1697A1902EB5B
:100AE0000900081AA0612078C00602D42046AFF39E
:100AF0000080002608E0D4E901211AF8060090479A
:100B0000206A401C761C20624E45F4DB2078C0062B
:100B10000AD52046AFF3008006E0D4E90121302059
:100B20009047206A401C2062381EA7F10107F4DCC0
:100B300007E0D4E9012118F805009047206A401C1D
:100B40002062281EA5F10105F3DC2046AFF30080EA
:100B50002078000602D50220BDE8F0870120FBE7DF
:100B600070472DE9FF4F0C461E464FF0FF378BB004
:100B7000D2E90001DDF860800A908A46C1F30A5587
:100B800005B93D46002108464FF00000BAF1000FBC
:100B900000F4400005DA00EB80004FF4400101EA68
:100BA00050004FEA9059B9F1010F00DDB9460A989B
:100BB00050EA4A000ED044F61050A5F2FF354543E6
:100BC0002F14B8F1000F1ED07542291E1EDDC9F189
:100BD00000021CE0B8F1010F4FF0000001D03021FD
:100BE00003E0F24305E02154401CB042FBDB3046F9
:100BF0000022002121540B99C1F80880C1E900208E
:100C00000FB0BDE8F08FBD1B6D1CDEE74A4600DA71
:100C1000694206A800F076FB06AB93E8070003AB39
:100C200083E8070050460A9901F019F98DE807009A
:100C3000A0F500501F3800900398002D0ADD42F205
:100C40001F014A460844002303A90390684601F0A7
:100C5000C5FB09E0A0F500504A461F38002303A950
:100C60000390684601F0E4FB8DE807000004000CE7
:100C700003D04FF0FF30410800E01046B8F1000FFC
:100C800003D00022009215461EE0751E05D400F028
:100C900023FA303262556D1EF9D5B346012208435E
:100CA00002D000227F1C04E02078302801D10022ED
:100CB0007F1E002A099784D01DE0112D07DA00F06D
:100CC0000BFA303262556D1C50EA0102F5D108432F
:100CD00002D00098C8B10EE00021681E05E0235C38
:100CE000625C63542254401E491C8142F7DBAB46D0
:100CF000A81B401E0990002004F80B000B98099ACD
:100D0000C0F80880C0E9002B7AE711264FF00008F0
:100D100057E72DE9F04F88460446D21D22F007011F
:100D200091B0D1E90001CDE90A0103F039FE024694
:100D30000B98C00F01D02D2007E02068810701D556
:100D40002B2002E0202101EAC000032A099001D0F3
:100D5000072A05DB03464146204600F023FA0BE153
:100D60002078800601D5E06900E00620B8F1650F23
:100D7000814606D0B8F1660F18D0B8F1670F70D170
:100D800031E00020B9F1110F009001DB112301E0E7
:100D900009F101030AAA01A90CA8FFF7E2FEDDE9A7
:100DA0000C70002609F10105834647E001204B46FF
:100DB00000904FF000470AAA01A90CA8FFF7D1FE46
:100DC000DDE90DB00C995D46002610B909F101006E
:100DD0000D18B9EB050003D4C0F1FF3609F1010588
:100DE000A5EB09002BE0B9F1010F01DA4FF0010981
:100DF0000020B9F1110F0090484601DD112300E0F9
:100E000003460AAA01A90CA8FFF7ABFEDDE90C70A6
:100E10004D4600268346207800070AD4AB4500DA09
:100E20005D4601A8012D04DD411911F8011C30298E
:100E300007D04F4502DA17F1040F04DA0120824689
:100E40000FE06D1EEEE7002F02DCED1B3E4403E0D9
:100E5000781CA84200DD7D1CB81B00F1010A4FF090
:100E600000472078000703D4AA4501DB4FF0FF3A82
:100E70000021B7F1004F0DF143088DF8431024D045
:100E800002202B23002F01DA7F422D230A21021E8C
:100E9000A0F1010000DC5FB197FBF1FC97FBF1F2E0
:100EA00001FB1C7C17460CF1300C08F801CDEEE775
:100EB000A8F1010003702188090501D5452100E052
:100EC0006521A0F1010800F8011C09980FA9A1EB08
:100ED0000807FF1D00B10120411901EBEA70A1696B
:100EE0003844081A401EA0612078C00602D420466B
:100EF000AFF30080099828B1D4E901219047206A16
:100F0000401C20622078C00622D52046AFF3008026
:100F10001EE0002E04DBB34502DD01A8805D00E089
:100F20003020D4E901219047206A401C2062761CC1
:100F3000AAF101005FEA000A0AD100F0C9F8C0680E
:100F40000168405CD4E901219047206A401C20627E
:100F5000281EA5F10105DCDC07E0D4E9012118F821
:100F6000010B9047206A401C2062381EA7F1010740
:100F7000F3DC2046AFF30080032011B041E600000F
:100F8000074B70B50D467B4400F0F9F8044628463F
:100F900000F02AFA10B14FF0FF3070BD204670BD4E
:100FA000A34B00000FB4002300B589B00CA9009139
:100FB0000B99CB60214B7B440693214B7B440793D9
:100FC00004236FF00042CDE901321E4A7A446B4699
:100FD00008920246002009F065FD09B05DF814FB97
:100FE00070B506464FF0FF3015460C46324686B0C7
:100FF0000091CDE9010169460020049004A8FFF7A3
:10100000D1FF02460498211825B108B1084600E036
:1010100020462860049800280DD0002A02DD0098A0
:10102000884208D03246081B69460094CDE9010485
:1010300004A8FFF7B7FF06B070BD00006B02000008
:1010400083020000930100002DE9F04791460F460E
:1010500080460446002614F8015B2DB100F030F8FC
:101060000068405DC007F6D12B2D02D02D2D18D081
:10107000641E4A463946204600F0F4F827B1396824
:10108000A14201D1C7F800804FF0020471050BD5D1
:101090004042002803DDFFF7FBFC0460A007BDE829
:1010A000F08746F48066E4E70028F8DAFFF7F0FC02
:1010B00004606FF00040F2E700487047580C0020D1
:1010C00010B500F005F8001D10BD00BF59910000DB
:1010D00000487047780C002030B5B0F10A024FEAA2
:1010E000900E71F100034EEA817EB0EB0E0061EBD1
:1010F00091014FEA101E4EEA017E10EB0E0041EB0B
:1011000011114FEA102E4EEA016E10EB0E0041EB6A
:1011100011214FEA104E4EEA014E10EB0E0041EB4A
:101120001141401841F100014FEAD00040EA4170FE
:101130004FEAD10110EB80054FEA810444EA907434
:1011400044EB01046D1944EB0404521BA3414FF01E
:10115000000348BF0A3200D530BD401C41F10001F8
:1011600030BD10B50446FFF7ABFF0068005D00F02E
:10117000010010BD01694A1C02610878704700B582
:101180008FB0CDE901310021059105497944CDE9C0
:10119000031011466846FFF71DFA0FB000BD0000AE
:1011A000E5FFFFFF2DE9F0411F46044603260168D5
:1011B000072A01F4006004DB08B116A505E016A5B6
:1011C00003E008B115A500E015A521F0100020608E
:1011D000A069C01EA0610FB1401EA0612046AFF300
:1011E00000804FB1D4E9012138469047206A401C65
:1011F0002062C01C206206E0206AFAE7D4E90121DF
:1012000015F8010B9047761EF8D22046AFF3008008
:10121000BDE8F0814E414E006E616E00494E4600C1
:10122000696E6600426842B1016811F8013B23B162
:10123000521EC0E90012184670470121C160881E85
:10124000704742685AB1C368016843B983688B42EA
:1012500005D0491E521CC0E90012002070474FF013
:10126000FF3070472DE9F05F824615468B46002718
:101270000AF10104B9460078302801D09DB113E08D
:1012800014F8010B0127782803D0582801D045B164
:101290000AE00DB1102D07D1002714F8010B10251D
:1012A00002E0082500E00A250026B0460EE005FB16
:1012B000080005FB06F101271FFA80F801EB104634
:1012C000B6F5803F00D3B94614F8010B294600F06B
:1012D000B4F80028EBDABBF1000F05D00FB1641EA3
:1012E00000E05446CBF80040B9F1000F06D0FFF7FC
:1012F000CFFB02210160C81EBDE8F09F48EA06400E
:10130000FAE700002DE9F047814616468AB03548D5
:1013100078440DC88DE80D0032487844801C03AC39
:101320000DC884E80D0041F69B300844372190FB3E
:10133000F1F290FBF1F5A5F1800501FB12041B3CD5
:1013400002D56442012000E00020DFF898A080462A
:101350000027FA44AAF1BE0A0EE0E0070AD032469E
:10136000684607EB470101230AEB810101F060F8B1
:101370008DE8070064107F1C002CEED1194F7F44CC
:10138000AE3F19E0E80715D007EB04100DF1180A7D
:1013900090E80E008AE80E00C068F04201D198196A
:1013A00008903246012306A903A801F041F803ABD7
:1013B00083E807006D10641C002DE3D14FF001039A
:1013C00032466946B8F1000F03A802D001F006F8D2
:1013D00001E001F02DF8C9E90001C9F808200AB0C0
:1013E000BDE8F087A0A60000007B00F080007047F9
:1013F0007546FFF761FEAE4605006946534620F08C
:101400000700854618B020B5FEF754FFBDE8204020
:101410004FF000064FF000074FF000084FF0000BB0
:1014200021F00701AC46ACE8C009ACE8C009ACE863
:10143000C009ACE8C0098D4670473A2800D2303860
:1014400020F02002412A01D3A2F13700884201D3C3
:101450004FF0FF30704700002DE9FF4F06468BB07C
:101460000878FF2806D0491C2D2805D000244FF00D
:10147000000908E000200CE00124F8E709EB8903EB
:10148000491C00EB43090878FF28F7D114B1C9F1D2
:1014900000008146107800252C46AA4629462D28B2
:1014A00001D02B2804D1521C2D2813D000208246B5
:1014B0008B461078FF280FD04FF0000C0A21521CE9
:1014C000A5FB017804FB018105FB0C11C5194BEB51
:1014D0000104EEE70120EAE7002108464FF0000092
:1014E000BAF1000F02D000EB80004008C0F3815732
:1014F000012F01DD4FF0FF370E9955EA040009EB8B
:1015000001080BD04FF0020918F5FA7F16DA4FEAFE
:10151000CA70002F706008DD012007E04FEACA7032
:10152000C6E900B00FB0BDE8F08F00203060FFF7D3
:10153000AFFAC0F800901821084616E0B8F5FA7F17
:1015400018DD002F02DAF748784401E0F6487844C5
:10155000D0E90010C6E9001040EACA707060FFF7D9
:1015600097FAC0F80090142108460FB0BDE8F04F7C
:1015700009F033BA002108464FF00000B8F100012D
:10158000099002DAC7F1000200E03A4601DAC8F138
:10159000000106A8FFF7B6FE06AB93E8070003AB11
:1015A00083E8070044F23E005BEA040100905846DD
:1015B00004D144F21E012C465D460091210C090421
:1015C000014306D10099240444EA15442D0410393E
:1015D000009104F07F41014306D10099240244EABE
:1015E00015642D020839009104F07041014306D1C1
:1015F0000099240144EA15742D01091F009104F09B
:101600004041014306D10099A40044EA9574AD001D
:10161000891E009104F00041084304D100986D191F
:101620006441401E00904FF001033A466846B8F10D
:10163000000FCDE9014503A902DD00F00EFF01E036
:1016400000F0E1FEBAF1000F04460D4601D084F02F
:101650000044002108464FF00000099940F2FF774E
:10166000484010F00C0F07D124F00040284303D06D
:10167000C4F30A50B84212D1FFF70AFAC0F800903A
:10168000C4F30A50B8420AD1A8487844D0E90010FF
:10169000C6E9001004F000410843706042E7C6E963
:1016A00000543FE72DE9FF4F1F464FF0000A4FF06F
:1016B000FF38454691B0D7E90146CDF83CA0FFF789
:1016C00007FDC0680168405C1090B96912986D1CF4
:1016D0008847396A814688470028F6D1B9F1FF3F2B
:1016E0000AD0002E24F4D06411DDB9F12B0F08D0FC
:1016F000B9F12D0F0BD102E0404615B013E744F4C9
:101700008064B96912986D1C8847761E8146600511
:1017100004A901D52D2000E02B20002E01F1010BA2
:101720000DF130088DF810003FDDB9F1690F08D0D8
:10173000B9F1490F05D0B9F16E0F02D0B9F14E0FD2
:101740001CD13B4601A8009580E85002DDE9121249
:101750006FF0020009F0AAF9C11CCED10EE0B96900
:1017600012986D1C884781461398761E44F40074C5
:1017700005600F98401C002E0F9016DDB9F1300F58
:10178000EDD0B9F1780F02D0B9F1580F0DD10F9803
:1017900001280AD13B46CDE90054DDE91212001FB1
:1017A000029609F081F9C11CA7D1109989453ED153
:1017B00044F0800406E01399681CAAF1010A44F47D
:1017C00000740860B9696D1C1298761E884730282D
:1017D0008146F0D02BE01099894505D1200603D42D
:1017E000761E44F0800418E0484603F0A7FB08B3D7
:1017F000761E0DF123018B4544F4007408D2A9F143
:1018000030000BF8010B200607D5AAF1010003E018
:10181000200602D40AF101008246A00502D51399E0
:10182000681C0860B96912986D1C88478146002EB3
:10183000D1DC53E0002E51DDB9F1650F02D0B9F1D2
:10184000450F4BD1A00549D5B9696D1C1298761E7C
:1018500024F440748847002E81460CDD2B2804D0E8
:10186000B9F12D0F07D144F48074B96912986D1C39
:101870008847761E8146E00501D52D2100E02B2109
:1018800008F8011BCDF8008021E0761E0DF139012A
:10189000884544F400740CD2A9F1300010F0FF0028
:1018A00088F8000002D10099884509D908F101089B
:1018B00006E0E00501D51E4801E042F20F708246C5
:1018C000B96912986D1C8847814613980560002EEF
:1018D00004DD484603F032FB0028D6D1F96912989E
:1018E0008847FF2053468BF8000088F8000000204E
:1018F0000A900B9004AA0CA90AA8FFF7ADFDA00559
:1019000002D46FF00100F8E614F0240F12D0E007C3
:101910001CD13868DDE90A12031D3B600068C0E98C
:10192000001213E04CAB00003EAB000002AA000026
:10193000F1D8FFFF0AA9684603F0B2FAE00705D123
:101940003868009A011D3960006802602846D4E6B4
:1019500010B50446AFF300802046BDE81040FEF706
:1019600095BC00004FF0013C50F8042B51F8043BAB
:101970009A4221D1A2EB0C03934313EACC1317D163
:1019800050F8042B51F8043B9A4215D1A2EB0C03FA
:10199000934313EACC130BD150F8042B51F8043BBA
:1019A0009A4209D1A2EB0C03934313EACC13DBD088
:1019B0004FF00000704700BFD01A01BAB1FA81F1B0
:1019C00001F0180122FA01F0CB40C1F12001DBB295
:1019D000C0B2C01A2CFA01F3D11A914311EAC31113
:1019E000E6D170472DE9FF4F1F464FF03C0987B005
:1019F0004FF00042DDE9141001F10108DDF858A0B4
:101A000002EA4050039000200590834605460446B4
:101A10000490B969461E08988847AAF1010A029005
:101A2000BAF1000F3BDD02982E2815D01021FFF7E8
:101A300004FD00282EDB4FF0010B0599014317D060
:101A4000B9F1000F0BDB4A46C11700F0F5F9054369
:101A50000C43A9F1040905E0012004900BE008B152
:101A600045F0010501200590049820B9361D02E0DB
:101A7000049800B1361FB969089808F10108884731
:101A8000BBF1000FAAF1010A0290C9D00999C1F86F
:101A90000080C5E70298702808D0502806D0F96960
:101AA00008988847BBF1000F14D04FE00020029047
:101AB0000120BBF1000F049009D0B969089808F122
:101AC00001088847AAF10109B9F1000F07DCF9699B
:101AD000089888476FF001000BB0BDE8F08F2B2805
:101AE00004D02D280CD14FF0FF300490B96908982C
:101AF00008F101088847A9F10109B9F1000FE6DDF5
:101B0000411CE4D00A21FFF798FC0028DFDB029992
:101B100008F1010801EB810100EB41000290B96975
:101B2000089888470A21FFF788FC099AA9F101095A
:101B3000B9F1000FC2F8008001DD0028E7DAF96989
:101B4000089888470499029800FB016655EA04004A
:101B500004D004F04041090002D006E0039898E068
:101B6000A40044EA9574AD00B61E04F000410800DC
:101B700002D16D196441761E159810F0240F03D020
:101B80004FF00B095C4803E04FF028096FF07D002F
:101B90008246564507DAAAEB06018944B9F1410F9E
:101BA00001DD4FF0410901200021A9F1010200F0FF
:101BB00043F9024628400B462140084301D0012149
:101BC00000E00021501E029143F1FF3128402140E6
:101BD000084301D0012000E000200299834651EA29
:101BE0000B014FD0002108464FF00000039900F48C
:101BF000400039B100EB80004FF4400100EBD070A1
:101C000001EA60008015012802DD4FF0FF3000E09E
:101C100013D0401C36D0029860B3BBF1000F0CD13A
:101C20004A460120002100F007F9284021400843DE
:101C300001D0012000E00020E0B101204A4600214F
:101C400000F0FAF8034640190A4661412D1A8C410A
:101C500011D3B9F1400F09DD159810F0240F02D00F
:101C6000AAF1340603E0AAF1170600E0761C00256D
:101C70004FF0004406E05B1E42F1FF3220EA03050C
:101C800021EA0204CAF10100B04206DA1B490398B6
:101C900008430190002000900EE0039AC4F3D32182
:101CA000E80A0A43164940EA44500A433146CDE95E
:101CB0000002684603F024F9159810F0240F0BD0A9
:101CC0001598C00715D13868DDE90012031D3B6087
:101CD0000068C0E900120CE002A8694603F0E0F8D1
:101CE0001598C00705D13868029A011D396000684F
:101CF00002604046F0E6000002FCFFFF0000F07FBB
:101D00000000F03F2DE9FF4F92461D4685B04FF091
:101D10000041DDE9124BDDE914727F1E01EA4B50F0
:101D2000414940F0FF4940EA0108002122F020002B
:101D30004928049102D04E2828D04CE03BA001262F
:101D400007C88DE80700A9690698641C88477F1EAC
:101D5000014606D41DF8060018B121F02001814289
:101D60000BD0E96906988847032E34D0082E32D06C
:101D70006FF0010009B0BDE8F08F761C032E01D092
:101D8000082EE0D1601CCAF80000DCE7A9690698BB
:101D9000641C88477F1E2AD420F02000412826D1C9
:101DA000A9690698641C88477F1E20D420F0200073
:101DB0004E281CD1A9690698641C88477F1E48F4E8
:101DC000002849F48009CAF8004001D4282806D028
:101DD000E969069888475FEACB7012D022E0A969CA
:101DE0000698641C88477F1E01D4002803DAE9693D
:101DF00006988847BCE72928F1D1641CCAF800403E
:101E0000E9E71BF0240F07D028680499031D2B6015
:101E10000068C0E9001805E02868021D2A60006813
:101E2000C0F800902046A5E70000F07F494E4649E3
:101E30004E49545900000000B2F120030AD5C2F106
:101E4000200301FA02F120FA03F300FA02F041EA5A
:101E50000301704700FA03F14FF0000070475FEA9A
:101E6000400C08BF91F0000F4FEA8C234FEAC122CB
:101E700043EA51514FEA1C5018BF00F5F0404FEAB9
:101E8000300018BF41F000415FEA6C5C00F029802F
:101E9000BCF1FF3F08BF40F080407047130C06BF05
:101EA00012044FF0100C4FF0000C130E04BF12027E
:101EB0000CF1080C130F04BF12010CF1040C930F6A
:101EC00004BF92000CF1020CD30F04BF52000CF1BE
:101ED000010C11464FF00002A0F11F00A0EB0C0016
:101EE000704711F0004F08BF704731F000413FF4D8
:101EF000D5AF0B0C06BF09044FF0100C4FF0000CCF
:101F00000B0E04BF09020CF1080C0B0F04BF0901F2
:101F10000CF1040C8B0F04BF89000CF1020CCB0FE9
:101F200004BF49000CF1010CCCF12003A0EB0C0024
:101F300022FA03F302FA0CF241EA030100F1010074
:101F4000704720F07F4C80EA030023F07F47ACEB22
:101F5000070303F57C5300F0004003F1FF032DE974
:101F600080494FEA154B09B44FEA144325EA0B4E5A
:101F700024EA03480FF2042606EB132749083E78AB
:101F80005FEA320203FB0667C7F5000707FB06F6A8
:101F90004FEA54374FEAD64606F1020607FB066CB5
:101FA000CCF1005C4FEA1C472CEA074C07FB06F417
:101FB0000CFB06F504EB15464FEA961634BF0020DD
:101FC0004FF000404FEAD13706FB07FC4FEA1C4CAC
:101FD0000CFB0BF7D21B03FB0CF761EB07010CFBAF
:101FE0000EF7B0EB074072EB17420CFB08F734BF5B
:101FF000A2EB0742B2EB074261EB17414FEA0C44F8
:102000004FEA910706FB07FC4FEA1C4C0CFB0BF751
:10201000B0EBC74072EB573203FB0CF734BFA2EBB7
:10202000C742B2EBC74261EB57310CFB0EF7B0EB86
:10203000C70072EB57720CFB08F734BFA2EBC70264
:10204000B2EBC70261EB5771039F4FEA816141EA2E
:10205000921104EBCC044FEAD1374FEA826206FBBF
:1020600007FC42EA90124FEA80604FEA1C4C0CFBDE
:102070000BF7D21B03FB0CF761EB07010CFB0EF710
:10208000B0EB074072EB17420CFB08F734BFA2EB32
:102090000742B2EB074261EB17414FEA8C554FEA1A
:1020A000910704EB9C2406FB07FC4FEA1C4C0CFB3D
:1020B0000BF7B0EBC74072EB573203FB0CF734BFA2
:1020C000A2EBC742B2EBC74261EB57310CFB0EF7F4
:1020D000B0EBC70072EB57720CFB08F734BFA2EBF2
:1020E000C702B2EBC70261EB577115EB4C254FEA03
:1020F000816141EA92114FEA82624FEAD13742EAA6
:10210000901206FB07FC44F100044FEA80604FEA9E
:102110001C4C0CFB0BF7D21B03FB0CF761EB07010C
:102120000CFB0EF7B0EB074072EB17420CFB08F705
:1021300034BFA2EB0742B2EB074261EB174115EB4C
:102140001C154FEA813141EA92414FEA823242EA5C
:1021500090424FEA80304FEA0C7644F1000448EA9E
:1021600003434EEA0B484FF0000EB2EB080C71EB44
:10217000030724BF624639464EEB0E0E4FF0000BAC
:102180000018524149414BEB0B0BB2EB080C71EBC1
:1021900003077BF1000B24BF624639464EEB0E0E5F
:1021A0004FF0000B0018524149414BEB0B0BB2EBC7
:1021B000080C71EB03077BF1000B24BF6246394624
:1021C0004EEB0E0E51EA020718BF46F0010616EB61
:1021D0000E7655F1000254F1000103D5BDE88901E6
:1021E000BDE80088BDE88901BDE80048B619524144
:1021F00041EB0101A3F10103704780807F7E7D7C6C
:102200007B7A7978777676757473727171706F6E88
:102210006E6D6C6C6B6A6A69686867666665646433
:10222000636362616160605F5F5E5E5D5D5C5C5BBD
:102230005B5A5A595958585757565655555554542C
:10224000535352525251515050504F4F4F4E4E4D8A
:102250004D4D4C4C4C4B4B4B4A4A4A4949494848D6
:102260004847474747464646454545444444444316
:1022700043434342424242414141000046EA06464E
:10228000A3F570534FEA164646EA42564FEAD22269
:1022900042EA415210B54FEAD121A3F1010300F007
:1022A0002FF820F0004000F1020C00F0004701EB95
:1022B00000501146BCF5006F40EA070000D210BD87
:1022C000BAF1000F0AD01CB503B44FF004004FF070
:1022D00004014FF000000FBCBDE810404FF00001BA
:1022E000BBF1010FB9BF04484FF0FF310348002193
:1022F00040EA070010BD00BFFFFFEF7F0000F07F46
:10230000002B9C4630D477002BD01CB54FEA370702
:1023100003B44FF010004FF01001BAF1000F06D0D7
:10232000BCF1000FDCBF40F0080040F008014FF0A6
:1023300000000FBCBDE810400BF1010BBBF1010F19
:1023400008BF5FEA170722BF12F1010211F1010174
:102350004FF0004143F1000300F0004043EA000069
:102360007047F9D35708D0E746EA064613F1400F05
:102370004FEA16461FDD13F1200FDFBF16430A4652
:10238000002120335B42BED0C3F1200746EA064657
:1023900002FA07F74FEA164646EA0706C3F1200796
:1023A00022FA03F201FA07F721FA03F14FF00003D2
:1023B00042EA0702A7E746EA020646EA06464FEA6D
:1023C000164646EA0106BCBF46EA0646360C4FF002
:1023D00000034FF000024FF0000194E72DE9804C1C
:1023E0009A46934670B491E8380007C831EA400C29
:1023F00048BF34EA430C03D5FFF7A3FDFFF780FF86
:10240000F0BCBDE8008C2DE9804C9A46934670B430
:1024100091E8380007C831EA400C48BF34EA430C61
:1024200003D5FFF78EFDFFF729FFF0BCBDE8008C58
:102430002DE9804C9A46934670B491E8380007C85D
:1024400010F0804F08BF13F0804F03D100F01AF84E
:10245000FFF756FFF0BCBDE8008C2DE9804C9A4692
:10246000934670B491E8380007C810F0804F08BF59
:1024700013F0804F03D100F005F8FFF7FFFEF0BC2A
:10248000BDE8008C20F07F4780EA030023F07F4CFA
:1024900007EB0C03A3F57C5300F00040A3F1FE030F
:1024A00092F0000F00F0B38095F0000F00F07780FD
:1024B0002DE901494FEA11404FEA144621EA00484C
:1024C00000FB06FC24EA064708FB06F607FB08F8B3
:1024D00000FB07F718EB06484CEB164C4FEA124B83
:1024E00018EB07484FEA15464CEB174022EA0B4E13
:1024F0000BFB06FC25EA06470EFB06F607FB0EFE65
:102500000BFB07F71EEB064E4CEB164C4FF000068C
:102510001EEB074E4CEB174B18EB0B0840F100007D
:1025200018EB0E0B58EB000840F100008F1A4FF02B
:1025300000013CBFC943661B14BFB5EB040C00216E
:102540003CBFC943F61B4FEA17444EEA8E0E27EAFA
:1025500004454FEA1C4704FB07622CEA074C05FBC5
:1025600007F70CFB05F604FB0CFC16EB074642EBE9
:10257000174216EB0C4642EB1C421BEB060658EBCF
:102580000202414146EA9E0601D5BDE80189B6191D
:10259000524141EB0101A3F10103BDE801894FEA7A
:1025A00014454FEA114724EA054621EA074C05FB8A
:1025B00007F406FB07F70CFB06F105FB0CFC11EB1F
:1025C000074144EB17444FEA124711EB0C4144EB2F
:1025D0001C4422EA074C05FB07F206FB07F70CFB3D
:1025E00006F605FB0CFC16EB074642EB174216EB12
:1025F0000C4642EB1C456A1854F1000148BF704775
:10260000B619524141EB0101A3F10103704795F066
:10261000000F37D04FEA11424FEA144721EA024631
:1026200024EA074C02FB07F106FB07F70CFB06F454
:1026300002FB0CFC14EB074441EB17414FEA154732
:1026400014EB0C4441EB1C4125EA074C02FB07F557
:1026500006FB07F70CFB06F602FB0CFC16EB074625
:1026600045EB174516EB0C4645EB1C42121951F190
:10267000000148BF7047B619524141EB0101A3F177
:10268000010370474FEA14454FEA114724EA054613
:1026900021EA074C05FB07F106FB07F70CFB06F2E6
:1026A0004FF0000605FB0CFC12EB074241EB174113
:1026B00012EB0C4251EB1C4148BF7047921841EBA2
:1026C0000101A3F10103704710B507F0C4F9002020
:1026D00010BD000010B504461B480078401C1A4984
:1026E000087008460078642828DA94ED000ADFEDC7
:1026F000170AB4EEE00AF1EE10FA0BDD94ED000AD1
:10270000DFED130A30EE600A84ED000A2046FFF781
:10271000E1FF13E094ED000ADFED0E0AB4EEE00AEB
:10272000F1EE10FA0AD294ED000ADFED090A30EE5C
:10273000200A84ED000A2046FFF7CCFF024800780B
:10274000401E0149087010BD5000002000003443B5
:102750000000B443000034C308B501F0B3F903F03E
:1027600091FA04F013FD01F0E9F901F0C5FB002036
:1027700003231A460821009000F00AF800200323E2
:102780001A460821009000F085F908BD00BFFEE759
:102790002DE9F0418AB004460D4616461F46DDF885
:1027A00040800121084601F0FBFB0121480601F0B1
:1027B00007FC4FF4C050089002208DF82400002040
:1027C0008DF8260003208DF8250001208DF82700C4
:1027D00008A92D4801F0F2F809220B212A4801F03E
:1027E00035F909220C21284801F030F900208DF834
:1027F0001A008DF81B008DF81C0001208DF81D00BB
:1028000000208DF81E008DF81F008DF816808DF8C1
:1028100017408DF818508DF81960ADF8147005A99F
:102820001A4800F056FA00208DF80E008DF80F00BF
:1028300001208DF810000020ADF80400ADF806006E
:10284000ADF80800ADF80A00ADF80C0001208DF8D5
:10285000110001A800F0B0F9012202210B4800F09C
:102860002FFA14208DF8000001208DF801000020BF
:102870008DF8020001208DF80300684601F0C0F9D0
:1028800000200AB0BDE8F081000002400064004072
:1028900010B586B005F00EF801AA0021744800F0CA
:1028A000A2FA40F201220199881A914275D006DC01
:1028B00007290BD0082928D009296BD147E0012826
:1028C00069D0022868D00328F7D1AEE09DF8150042
:1028D00001069DF8140041EA00419DF8130041EA09
:1028E00000209DF812100843624988606248007811
:1028F00028B908468068C86001205F4908709FEDCC
:102900005F0A002001F0C2F9ADE09DF81500010654
:102910009DF8140041EA00419DF8130041EA0020AF
:102920009DF8121008435349C1F89000524840786E
:1029300038B90846D0F89010C0F8941001204E49DC
:1029400048709FED4E0A012001F0A0F98BE09DF840
:10295000150001069DF8140041EA00419DF813009E
:1029600041EA00209DF8121008434249C1F81801BD
:102970004148807838B90846D0F81811C0F81C11C1
:1029800001203D4988709FED3D0A022001F07EF94B
:1029900069E002E062E017E02EE09DF812109DF879
:1029A000110041EA002000B2354908609DF810008E
:1029B0009DF80F1040EA0124314884609FED310AF0
:1029C000002004F099F94EE09DF812109DF81100D6
:1029D00041EA002000B22A4988679DF810009DF85E
:1029E0000F1040EA01242648C0F880409FED250AD8
:1029F000012004F081F936E09DF812109DF81100D5
:102A000041EA002000B21E49C1F8F0009DF8100014
:102A10009DF80F1040EA01241948C0F8F8409FEDD6
:102A2000190A022004F068F91DE09DF812109DF8C3
:102A3000110041EA002000B21149C1F868019DF877
:102A400010009DF80F1040EA01240D48C0F87041B5
:102A50009FED0C0A032004F04FF904E00AA001994D
:102A6000FDF7ACFD00BF00BF04F04EFF06B010BD87
:102A7000006400409C0500200D000020000000477D
:102A8000BC0300200000004620CEB4D6AA49443A38
:102A9000257820002DE9F0418AB004460D461646FF
:102AA0001F46DDF840800121022001F079FA012162
:102AB000880601F085FA6020089002208DF8240035
:102AC00000208DF8260003208DF8250001208DF8C8
:102AD000270008A92D4800F071FF092205212B4885
:102AE00000F0B4FF09220621284800F0AFFF0020C3
:102AF0008DF81A008DF81B008DF81C0001208DF850
:102B00001D0000208DF81E008DF81F008DF8168026
:102B10008DF817408DF818508DF81960ADF81470C5
:102B200005A91B4800F0D5F80E208DF80E000020F6
:102B30008DF80F0001208DF810000020ADF8040082
:102B4000ADF80600ADF80800ADF80A00ADF80C00CD
:102B500001208DF8110001A800F02EF801220221B9
:102B60000B4800F0ADF840208DF8000001208DF8F2
:102B7000010000208DF8020001208DF80300684656
:102B800001F03EF800200AB0BDE8F08100040240E8
:102B90000068004000B585B004F08CFE6A46002154
:102BA000044800F020F9684600F078FA04F0ACFE22
:102BB00005B000BD0068004010B50021837A0122F5
:102BC00002FA03F13D4A126842F001023B4B1A60DF
:102BD0003A4A1C3212688A43384B1C331A60027B13
:102BE000CAB9364A0C3212688A43344B0C331A6025
:102BF0004288C38842EA0343304A4032847A42F82A
:102C000034300288838842EA03432C4A4032847A73
:102C100002EBC4025360027B012A19D1274A0C320D
:102C200012680A43254B0C331A604288038842EA33
:102C30000343224A4032847A42F83430C28883887F
:102C400042EA03431D4A4032847A02EBC4025360D5
:102C5000C27A3AB9194A121D12688A43174B1B1DD2
:102C60001A6006E0154A121D12680A43134B1B1D19
:102C70001A60028932B9114A143212688A430F4B22
:102C800014331A600289012A06D10C4A14321268E0
:102C90000A430A4B14331A60427B012A06D1074AC1
:102CA0001C3212680A43054B1C331A60034A12682F
:102CB00022F00102014B1A6010BD000000660040C6
:102CC0001AB143690B43436102E043698B4343619B
:102CD000704730B5024600200023146824F0020437
:102CE0001460146844F00104146000E05B1C546834
:102CF00004F001041CB94FF6FF74A342F6D15468E6
:102D000004F001040CB900206CE08C79012C04D192
:102D1000146844F08004146003E0146824F0800414
:102D20001460CC79012C04D1146844F04004146080
:102D300003E0146824F0400414600C7A012C04D1E0
:102D4000146844F02004146003E0146824F02004A4
:102D500014604C7A012C04D1146844F010041460FF
:102D600003E0146824F0100414608C7A012C04D160
:102D7000146844F00804146003E0146824F00804A4
:102D80001460CC7A012C04D1146844F0040414605B
:102D900003E0146824F0040414608C78A407CD7850
:102DA00044EA05640D7944EA05444D7944EA055442
:102DB0000D886D1E2C43D461146824F00104146046
:102DC000002300E05B1C546804F001041CB14FF6C2
:102DD000FF74A342F6D1546804F001040CB1002042
:102DE00000E0012030BD10B500F5D87303EB0113EE
:102DF0001B6803F004031372137A53B900F5D873F8
:102E000003EB01131B6840F2FF7404EA5353136091
:102E100009E000F5D87303EB01131B686FF0604401
:102E200004EAD303536000F5D87303EB01131B6866
:102E300003F00203537200F5D87303EB01135B68D0
:102E400003F00F03937200F5D87303EB01135B6873
:102E50001B0AD37400F5D87303EB01139B68D3727C
:102E600000F5D87303EB01139B681C0A147300F57B
:102E7000D87303EB01139B681C0C547300F5D873D3
:102E800003EB01139B681B0E937300F5D87303EBE0
:102E90000113DB68D37300F5D87303EB0113DB6810
:102EA0001C0A147400F5D87303EB0113DB681C0CC7
:102EB000547400F5D87303EB0113DB681B0E937495
:102EC00021B9C36843F02003C36003E0036943F002
:102ED0002003036110BD10B502460020936803F083
:102EE0008063B3F1806F00D110E0936803F000635A
:102EF000B3F1006F01D1012008E0936803F0805323
:102F0000B3F1805F01D1022000E00420042874D0D6
:102F100002F5C07303EB00131B6803F0010402F514
:102F2000C07303EB00131C600B7A7BB94B7A0C88DF
:102F300043EA445302F5C07404EB001424682343AD
:102F400002F5C07404EB0014236010E00B7A4C68A7
:102F500043EAC4034C7A234302F5C07404EB001423
:102F60002468234302F5C07404EB001423608B7AB9
:102F700003F00F038B7202F5C07303EB00135B6861
:102F800023F00F0402F5C07303EB00135C6002F53D
:102F9000C07303EB00135B688C7A234302F5C074A3
:102FA00004EB001463608B7B1C064B7B44EA0344F8
:102FB0000B7B44EA0323CC7A234302F5C07404EB71
:102FC0000014A3608B7C1C064B7C44EA03440B7CFE
:102FD00044EA0323CC7B234302F5C07404EB0014C2
:102FE000E36002F5C07303EB00131B6843F00104B8
:102FF00002F5C07303EB00131C6010BD10B5024650
:10300000002321B1012907D002290FD109E09068DE
:103010001D4C00EA04030BE090681C4C00EA04031A
:1030200006E090681A4C00EA040301E0002300BFA8
:1030300000BF184C181BA34216D007DC83B16FF0F9
:103040008060184470B1022818D111E0B0F5007FFB
:1030500010D0114C204448B1B0F5003F0ED10BE028
:1030600002230DE000230BE0002309E0002307E02A
:10307000012305E0012303E0012301E0002300BF59
:1030800000BFD8B210BD0000030000040003000818
:1030900000000310000100080001FFF72DE9F041D6
:1030A0002DED048B82B0054600200190A888C0F366
:1030B000072605F10B072879042807D014280BD020
:1030C000592806D05A280AD1AB4C0DE0AA4C4434FA
:1030D0000AE0A94C883407E0A74CCC3404E002B0E5
:1030E000BDEC048BBDE8F08100BF0F2E7ED004DC68
:1030F000092E07D00E2E7AD143E0102E78D01B2E49
:10310000F9D114E101A9384602F0B1F800EE100A35
:10311000B8EEC00A84ED000A01A9384602F099F819
:1031200000EE100AB8EEC00A10EE108A404607F012
:10313000D9FB41EC190B9FED910B53EC102B07F0D1
:10314000CDF841EC180B07F083F8606001A9384610
:1031500002F07FF800EE100AB8EEC00A10EE108AF6
:10316000404607F0BFFB41EC190B9FED860B53EC7B
:10317000102B07F0B3F841EC180B07F069F8A060CA
:10318000F6E001A9384602F072F800EE100AB8EE37
:10319000C00A10EE108A404607F0A4FB41EC190B60
:1031A0009FED7A0B53EC102B07F098F841EC180BBD
:1031B00007F04EF8E06001A9384602F058F800EE3A
:1031C000100AB8EEC00A10EE108A404607F08AFBDB
:1031D00041EC190B9FED6D0B53EC102B07F07EF8B3
:1031E00041EC180B07F034F82061C1E001E0BEE0CB
:1031F00034E001A9384602F03AF800EE100AB8EEC1
:10320000C00A10EE108A404607F06CFB41EC190B27
:103210009FED5E0B53EC102B07F060F841EC180BA0
:1032200007F016F8606101A9384602F020F800EEB8
:10323000100AB8EEC00A10EE108A404607F052FBA2
:1032400041EC190B9FED510B53EC102B07F046F896
:1032500041EC180B06F0FCFFA06189E001A938469B
:1032600001F0F7FF00EE100AB8EEC00A10EE108A67
:10327000404607F037FB41EC190B9FED400B53EC38
:10328000102B07F02BF841EC180B06F0E1FFE06182
:1032900001A9384601F0DDFF00EE100AB8EEC00AC1
:1032A00010EE108A404607F01DFB41EC190B9FED14
:1032B000330B53EC102B07F011F841EC180B06F010
:1032C000C7FF206201A9384601F0C3FF00EE100AD3
:1032D000B8EEC00A10EE108A404607F003FB41EC3E
:1032E000190B9FED260B53EC102B06F0F7FF41EC6A
:1032F000180B06F0ADFF606201A9384601F0A9FF86
:1033000000EE100AB8EEC00A10EE108A404607F030
:10331000E9FA41EC190B9FED1F0B53EC102B06F053
:10332000DDFF41EC180B06F093FFA06220E001A93D
:10333000384601F09CFF206401A9384601F089FF5E
:1033400000EE100AB8EEC00A10EE108A404607F0F0
:10335000C9FA41EC190B9FED090B53EC102B06F049
:10336000BDFF41EC180B06F073FFE06300E000BF07
:1033700000BF00BFB3E60000AC0200200000000068
:10338000000024400000000000408F4000000000CA
:103390000088C340000000000000494010B52DED3A
:1033A0000E8B82B00446F0EE408AB0EE609AB0EE2A
:1033B000418AF0EE61AAB0EE42BAF0EE629A9FED59
:1033C0006F0AB0EE40DA9FED6D0A8DED010A9FEDB8
:1033D0006B0AB0EE40AADFED6A0A88EE200ADFED44
:1033E000690A20EE200AF0EE40DAFDF70FF820EE31
:1033F00028EA9FED630AC8EE000A9FED620A20EEFC
:10340000800AF0EE40DAFDF76DF809EE00EAF0EE22
:103410004ECADFED5B0A88EE200ADFED5A0A20EE85
:10342000200AF0EE40DAFDF75DF8FFEE000A68EEE4
:10343000A00A20EE20EADFED520A88EE200ADFED36
:10344000510A20EE200AF0EE40DAFCF7DFFF09EE29
:1034500000EAB0EE4EDA9FED4A0ACAEE800A9FED0E
:10346000490A20EE800ADFED480A20EE200AF0EE3D
:1034700040BA3BEE290A8DED010A01A8FFF72AF9AF
:10348000DDED010A9FED3E1A80EE810ADFED3D0A77
:1034900020EE200AF0EE40DAFCF7B8FFF0EE6C0AFE
:1034A0004BEE800AB0EE60CADDED010A9FED341AE2
:1034B00080EE810ADFED330A20EE200AF0EE40DADA
:1034C000FDF710F8F0EE4D0A4BEE800AB0EE60AA60
:1034D0006CEE0C0A4AEE0A0AB0EE600A204601F0D1
:1034E0008BFE94ED000ADFED290AB4EEE00AF1EE5E
:1034F00010FA11DDF0EE4C0AB0EE4A0A01F0F8FACB
:103500009FED201AC0EE010A9FED1D1AB0EE690A68
:1035100010EE810A84ED010A94ED010ADFED1C0A28
:10352000B4EEE00AF1EE10FA0DDD94ED010ADFEDE4
:10353000140A30EE600A84ED010A94ED000AB1EE3F
:10354000400A84ED000A94ED010ADFED120AB4EEA0
:10355000E00AF1EE10FA0DD294ED010ADFED080A4F
:1035600030EE200A84ED010A94ED000AB1EE400A23
:1035700084ED000A02B0BDEC0E8B10BD000000000F
:1035800000003443DB0F4940440BC3430AD7233CBC
:103590000000B4420000B4C21D490A780978491CF1
:1035A0001B4B19701B4988540978552903D00021F9
:1035B0001A4611707047164909780B2900DAF9E7A5
:1035C00014494978512904D052290AD0532918D1D5
:1035D0000FE011490F4A921C13680B6052684A6051
:1035E0000FE00E490B4A921C13680B6052684A6048
:1035F00007E00B49074A921C13680B6052684A6047
:1036000000BF00BF0021024A117000BFD2E70000D6
:103610004B000020340700201A0000202200002068
:103620002A00002030B58FB005460C4601214048E5
:1036300000F0B6FC0121102000F0E2FC07220A2174
:103640003C4800F003FA4FF480600D9002208DF8A2
:10365000380000208DF83A0003208DF83900002052
:103660008DF83B000DA9334800F0A8F9324801F06D
:1036700035F8324809900020ADF82800ADF82A004E
:103680004FF48060ADF82C000420ADF82E0000202F
:10369000ADF8300009A9284801F0F4F801224021D2
:1036A000254801F012F825208DF8380001208DF80A
:1036B0003B008DF839008DF83A000EA800F0A0FA12
:1036C000012240F224411C4801F0B7F81C4800F0E8
:1036D0005FF84FF0006000901748001D01900295C0
:1036E00000200390049405904FF480600690002021
:1036F000079008904FF4807009904FF440300A9082
:1037000000200B900C900D900E9069460C4800F034
:10371000F5F801210A4800F02FF80121064800F0D1
:10372000C8FF1021044800F0BBFF0FB030BD0000FF
:10373000010040000000024000100140A08601008E
:10374000406402400246094B9A4201D2084801E017
:103750000648103801F000531BB1064B0B40C36004
:1037600002E0044B0B40836070470000106402408D
:10377000006002407D0F7D0F21B1026842F001021E
:10378000026003E0026822F001020260704700005C
:10379000016821F001010160002101604160816048
:1037A000C1600161212141614A49884204D13D2122
:1037B000484A103A91608CE046491831884205D158
:1037C0004FF47461434A103A916082E041493031CC
:1037D000884205D14FF474113E4A103A916078E066
:1037E0003C494831884205D14FF07461394A103A5A
:1037F00091606EE037496031884204D13649354ADC
:10380000103AD16065E033497831884204D13349B8
:10381000304A103AD1605CE02E499031884204D1A0
:103820002F492C4A103AD16053E02A49A8318842E6
:1038300005D14FF03D51274A103AD16049E029495E
:10384000884204D13D21274A083A116041E02549C8
:103850001831884205D14FF47461224A083A116048
:1038600037E020493031884205D14FF474111D4AA8
:10387000083A11602DE01B494831884205D14FF0CC
:103880007461184A083A116023E016496031884291
:1038900004D11149134A121F11601AE011497831FD
:1038A000884204D10D490F4A121F116011E00D49E1
:1038B0009031884204D10A490A4A121F116008E077
:1038C0000849A831884204D14FF03D51054A121FE2
:1038D00011607047106002403D000020400F002042
:1038E00000003D2010640240014600200A6802F0FA
:1038F00001020AB1012000E00020704710B500224B
:103900000268134B1A40CC680B6823434C6923436D
:103910008C692343CC6923430C6A23434C6A2343B9
:103920008C6A23434C6B23438C6B23431A43026002
:10393000426922F00702D1E90B3423431A43426162
:103940000B6943604B6883608B68C36010BD0000E7
:103950003F801CF04160704770470000D0ED000AC6
:1039600070EEC00AC0ED000AD0ED000A9FED101AFB
:10397000F4EEC10AF1EE10FA07DBD0ED000A9FED7C
:103980000D1A70EEC10AC0ED000AD0ED000A9FEDDD
:103990000A1AF4EEC10AF1EE10FA07D8D0ED000AC7
:1039A0009FED041A70EE810AC0ED000A7047000016
:1039B000000034430000B443000034C3F0B50A46AD
:1039C00000210023002400BF3DE0012505FA01F39A
:1039D000156805EA03049C4234D105684F000326AC
:1039E000BE40B543056015794E00B54006683543C5
:1039F00005601579012D02D01579022D16D1856843
:103A00004F000326BE40B543856055794E00B54052
:103A1000866835438560456801268E40B54345601C
:103A2000456896798E40B6B235434560C5684F000B
:103A30000326BE40B543C560D5794E00B540C66883
:103A40003543C560491C1029BFD3F0BDF0B5002334
:103A500000244D07ED0E02FA05F3CE1000F120050B
:103A600055F826504E07F70E0F26BE40B543CF102F
:103A700000F1200646F82750CE1000F1200555F839
:103A8000265045EA0304CE1000F1200545F82640F3
:103A9000F0BD00000849B1F9041000EE101AB8EEAC
:103AA000C00A9FED061AC0EE010A9FED050A20EE3E
:103AB000800A80ED000A70472A00002000000047BD
:103AC000000034431CB50121402000F069FA4FF496
:103AD000C050009001208DF8040000208DF80600F1
:103AE00003208DF8050001208DF807006946024883
:103AF000FFF764FF1CBD00000018024000BFFEE796
:103B000000EB00110C4A02EBC101D1F884106429CA
:103B100010DA00EB001102EBC101D1F8841011F1B1
:103B2000640F07DD002100EB0012034B03EBC20220
:103B3000C2F88410704700009C050020002025E09A
:103B40000021C0EB0012134B43F83210C0EB0012FF
:103B500003EBC2025160C0EB001203EBC2029160A2
:103B6000C0EB001203EBC2021161C0EB001203EBC9
:103B7000C202D160C0EB001203EBC2025161C0EB84
:103B8000001203EBC2029161411CC8B20428D7DBCA
:103B900070470000BC030020002114E0C1EB0110BD
:103BA0000B4A02EBC0000069B0F5961F07DCC1EBC1
:103BB000011002EBC000006910F5961F01DA012028
:103BC0007047481CC1B20329E8DB0020F8E7000079
:103BD000BC030020704708B54FF4E06000F04CF8DB
:103BE00027208DF8000000208DF8010001208DF8BD
:103BF00002008DF80300684600F002F808BD0000DE
:103C000070B5002100230F22C4781CB3174C246820
:103C100004F4E064C4F5E064C4F30721C1F10404D2
:103C2000E3B20A4144789C40E1B2847814402143D5
:103C30000C07210E0E4C05786155047804F01F0521
:103C40000124AC4005786D11AD0005F1E025C5F803
:103C5000004109E0047804F01F050124AC40054D43
:103C60000678761145F8264070BD00000CED00E0A6
:103C700000E400E080E100E002490143024A1160F3
:103C8000704700000000FA050CED00E000EB0011A9
:103C9000484A02EBC101096900EB0012454B03EBF6
:103CA000C2025269891A00EB001243F8321000EB8D
:103CB00000111A4602EBC101096900EB001203EB87
:103CC000C2025161F0EE000A80EE201A00EB0011F2
:103CD0001A4602EBC101C96800EB001203EBC202F5
:103CE0009268891A00EE901AF8EEE00AB4EEE01A33
:103CF000F1EE10FA0CD800EB00111A4602EBC101EC
:103D00008969491C00EB001203EBC202916129E0B2
:103D1000F1EE400AF0EE001A80EEA11A00EB00115D
:103D2000244A02EBC101C96800EB0012214B03EBEE
:103D3000C2029268891A00EE901AF8EEE00AB4EE18
:103D4000E01AF1EE10FA0CDB00EB00111A4602EB60
:103D5000C1018969491E00EB001203EBC2029161A7
:103D600000E000BF00EB0011124A02EBC101D1EDEF
:103D7000020AF8EEE00A00EB001102EBC10191ED3E
:103D8000061AB8EEC11A41EE000AFDEEE00A00EB99
:103D9000001102EBC101C1ED040A00EB001102EBBE
:103DA000C101896800EB0012024B03EBC202D16033
:103DB000704700009C050020F0EE402AC0ED002A6C
:103DC000C0ED010A80ED021A80ED042AC0ED031A4D
:103DD00090ED030A90ED043A30EE430A80ED050AB7
:103DE000B5EEC02AF1EE10FA03D19FED340A80ED52
:103DF0000A0A90ED0A0A90ED073AB4EEC30AF1EE12
:103E000010FA04DD90ED070A80ED0A0A10E090ED4B
:103E10000A0A90ED073AB1EE433AB4EEC30AF1EE66
:103E200010FA05D290ED070AB1EE400A80ED0A0AB9
:103E300090ED0A0A90ED053A30EE030A80ED0A0A89
:103E400090ED000A90ED053A20EE030A90ED013A5C
:103E5000D0ED0A3A03EE230A90ED053AD0ED063A8A
:103E600033EE633AD0ED023A03EE830A80ED090A9D
:103E700090ED050A80ED060A90ED090A90ED083AEA
:103E8000B4EEC30AF1EE10FA04DD90ED080A80EDFD
:103E9000090A10E090ED090A90ED083AB1EE433AB4
:103EA000B4EEC30AF1EE10FA05D290ED080AB1EEB5
:103EB000400A80ED090A90ED090A704700000000F1
:103EC0009FED0C0A80ED030A9FED0A0A80ED040ABB
:103ED0009FED080A80ED050A9FED060A80ED060AAF
:103EE0009FED040A80ED0A0A9FED020A80ED090A9F
:103EF000704700000000000000B5DFED220A9FEDD2
:103F0000220A224800F046F82048FFF7D9FFDFEDEB
:103F10001D0A9FED1D0A1D482C3000F03BF81B4880
:103F20002C30FFF7CDFFDFED170A9FED170A17487A
:103F3000883000F02FF815488830FFF7C1FFDFED1B
:103F4000110A9FED110A1148B43000F023F80F4810
:103F5000B430FFF7B5FFDFED0B0A9FED0B0A0C48FD
:103F600000F018F80A48FFF7ABFFDFED060A9FEDF7
:103F7000060A07482C3000F00DF805482C30FFF7F2
:103F80009FFF00BD00007A460080BB44C0050020B2
:103F9000D006002080ED070AC0ED080A7047000037
:103FA00029B1064A12680243044B1A6004E0034A2E
:103FB00012688243014B1A6070470000303802409B
:103FC00029B1064A12680243044B1A6004E0034A0E
:103FD00012688243014B1A6070470000403802406B
:103FE00029B1064A12680243044B1A6004E0034AEE
:103FF00012688243014B1A6070470000203802406B
:1040000029B1064A12680243044B1A6004E0034ACD
:1040100012688243014B1A60704700004438024026
:1040200029B1064A12680243044B1A6004E0034AAD
:1040300012688243014B1A60704700002438024026
:10404000F0B5002100220024022500260223324F71
:104050003F6807F00C0121B1042905D0082937D1A8
:1040600005E02E4F076036E02D4F076033E02A4F02
:104070003F1F3F68C7F38056274F3F1F3F6807F039
:104080003F036EB1264FB7FBF3F7DFF88CC0ACF1FE
:10409000040CDCF800C0CCF3881C07FB0CF40CE02B
:1040A0001E4FB7FBF3F7DFF870C0ACF1040CDCF87F
:1040B00000C0CCF3881C07FB0CF4174F3F1F3F6870
:1040C000C7F301477F1C7D00B4FBF5F7076002E0F2
:1040D000124F076000BF00BF0F4F3F6807F0F001AD
:1040E0000909104F7A5C0768D74047600A4F3F685C
:1040F00007F4E051890A0B4F7A5C4768D740876024
:10410000054F3F6807F46041490B064F7A5C4768EA
:10411000D740C760F0BD0000083802400024F4001A
:1041200000127A00900000200278437842EA0322CD
:10413000C2F30A020A804278D210837842EA43121C
:10414000C2F30A024A8082789211C37842EA83025B
:10415000037942EA8322C2F30A028A80027952106A
:10416000437942EAC312C2F30A02CA8042791211A9
:1041700092088A724279C2F30113CB728279C379B1
:1041800042EA032212B28A81027A437A42EA032285
:1041900013B201F10C02CB81827AC37A42EA032284
:1041A00013B201F10C020B82037B8B74437BCB7443
:1041B000827BC37B42EA03228A82027C437C42EAFE
:1041C000032212B20A810A88A2F5806212B20A8022
:1041D0004A88A2F5806212B24A808A88A2F580627B
:1041E00012B28A80CA88A2F5806212B2CA800A8995
:1041F000A2F5806212B20A81704770472DE9F04142
:1042000086B005460F461446002601950295F8B281
:104210008DF80C0000208DF80D0008208DF80E00A0
:10422000B4F9000001F0D6FC8DF80F00B4F90000DD
:1042300001F0D4FC8DF81000B4F9020001F0CAFCC2
:104240008DF81100B4F9020001F0C8FC8DF81200DD
:10425000B4F9040001F0BEFC8DF81300B4F90400B9
:1042600001F0BCFC8DF81400B4F9060001F0B2FCBA
:104270008DF81500B4F9060001F0B0FC8DF81600B9
:1042800001A90D48FEF727FE804600BF01E0701C23
:1042900086B241460848FEF7B1FE18B940F6FF70F5
:1042A0008642F4DB40F6FF70864203DB012006B055
:1042B000BDE8F0810020FAE7006400400CB5002062
:1042C000019000903448006840F480303249086022
:1042D00000BF3148006800F4003000900198401C95
:1042E0000190009818B90198B0F5A04FF1D12A4873
:1042F000006800F4003010B10120009001E00020BF
:1043000000900098012846D123484030006840F0D2
:1043100080502149403108602048006840F4404006
:104320001E4908601C48083000681B4908310860B5
:104330000846006840F4004008600846006840F401
:10434000A05008601648091F0860081F006840F068
:104350008070091F086000BF0F48006800F00070FF
:104360000028F9D040F205700E4908600A4808306C
:10437000006820F00300084908310860084600681A
:1043800040F00200086000BF03480830006800F0F9
:104390000C000828F8D10CBD003802400070004025
:1043A00008544007003C024010B503F083FA04F0C3
:1043B000D9FE03F0A9FA10BD70B500200022022337
:1043C00000240221274D2D6805F00C0020B104289F
:1043D00006D0082834D107E0234D244E356033E061
:1043E000234D224E35602FE01E4D2D1F2D68C5F345
:1043F00080541C4D2D1F2D6805F03F0154B11C4DFC
:10440000B5FBF1F5174E361F3668C6F3881605FB67
:1044100006F209E0144DB5FBF1F5124E361F366871
:10442000C6F3881605FB06F20E4D2D1F2D68C5F349
:1044300001456D1C6B00B2FBF3F50C4E356003E0DB
:10444000094D0A4E356000BF00BF064D2D68C5F30B
:104450000315084E705D054D2D68C540034E35604F
:1044600070BD0000083802400024F4007C000020E9
:1044700000127A008000002010B51548006840F452
:104480007000134908601348006840F001001149AA
:10449000086000200F49083108600E4800680E4986
:1044A00008400C4908600D48091D0860081F006895
:1044B00020F48020091F0860002006490C310860A4
:1044C000FFF7FCFE4FF0006001498039086010BD25
:1044D00088ED00E000380240FFFFF6FE10300024B7
:1044E00010B503F0E7F913480088124880880021CE
:1044F0001148FFF741F91048001D0068122803D148
:104500000E490F48FFF710FE0E490B48FFF71AF946
:1045100000BF0948FFF7E8F90028FAD11221064840
:10452000FFF718FA01210448FFF726F903F0ECF928
:1045300010BD000000100140406402402E08002021
:10454000440800203000002010B503F0B3F940F219
:104550002551074800F047F9012806D1044800F02A
:10456000FBF9C4B22046FFF717F803F0CDF910BDF0
:104570000044004000B587B010222849284803F0C5
:1045800059FE00231A4627A1294803F0F9FF01210B
:104590000F20FFF705FD01218804FFF711FD072219
:1045A00008212448FFF752FA072209212148FFF782
:1045B0004DFA4FF44070059002208DF818008DF8E8
:1045C000190000208DF81A0001208DF81B0005A9A4
:1045D0001848FFF7F3F9184800F080F84FF4E1307D
:1045E00001900020ADF80800ADF80A00ADF80C000D
:1045F000ADF810000C20ADF80E0001A90E4800F037
:1046000041F9012240F225510B4800F016F9012131
:10461000094800F04EF807B000BD0000700200200D
:10462000800200207368656C6C5F72780000000087
:104630008C020020000C02400048004010B54FF0F2
:10464000FF3403F037F940F22551124800F0CBF85F
:10465000E8B120210F4800F0B9F8C0B112E04FF0E6
:10466000FF3440F225510B4800F0BDF818B109485D
:1046700000F072F90446601C00B904E0E1B206489B
:1046800003F010FEEBE700BF044803F0AFFF03F0B8
:104690003BF910BD00480040800200208C02002041
:1046A00001F40072B2F5007F00D100BFCA4302805E
:1046B000704721B1828942F40052828104E08289EC
:1046C0004DF6FF731A40828170471AB1838A0B43FB
:1046D000838202E0838A8B438382704710B504464D
:1046E0003248844208D101211020FFF799FC0021B3
:1046F0001020FFF795FC57E02D48844209D1012195
:104700004804FFF76DFC00214FF40030FFF768FC10
:104710004AE02848844209D101218804FFF760FC5F
:1047200000214FF48020FFF75BFC3DE022488442EB
:1047300009D10121C804FFF753FC00214FF40020E8
:10474000FFF74EFC30E01D48844209D101210805E5
:10475000FFF746FC00214FF48010FFF741FC23E0F7
:104760001748844208D101212020FFF759FC00217D
:104770002020FFF755FC17E01248844209D101219F
:104780008807FFF72DFC00214FF08040FFF728FC41
:104790000AE00D48844207D101214005FFF720FCC3
:1047A00000216005FFF71CFC10BD00000010014057
:1047B0000044004000480040004C004000500040D1
:1047C0000014014000780040007C004002460020B8
:1047D000B1F5007F00D100BF13880B400BB1012061
:1047E00000E00020704770B5024600240023002539
:1047F000002040F66A16B14200D100BFC1F3421555
:1048000001F01F03012606FA03F3012D02D1968958
:10481000334006E0022D02D1168A334001E0968A29
:1048200033400C12012606FA04F41688344013B102
:104830000CB1012000E0002070BDF0B5034600245B
:1048400000260025002040F66A17B94200D100BFBB
:104850001846C1F3421401F01F06012707FA06F5B6
:10486000012C01D10C3004E0022C01D1103000E009
:1048700014301AB107682F43076002E00768AF439E
:104880000760F0BD2DE9FF4705460E460024A1460E
:1048900000BFA046B08900B100BF2C8A24F4405468
:1048A000F08804432C82AC8941F20C608443B088C8
:1048B00031890843718908430443AC81AC8A24F4EC
:1048C0004074B0890443AC826846FFF7B9FB2048C6
:1048D000854202D01F48854202D1DDF80C9001E0EC
:1048E000DDF80890A88900F4004040B109EBC90048
:1048F00000EB091031684900B0FBF1F707E009EB64
:10490000C90000EB091031688900B0FBF1F76420A1
:10491000B7FBF0F004012009642101FB1078A8899D
:1049200000F4004040B1322000EBC800B0FBF1F0D1
:1049300000F00700044308E0322000EB0810642177
:10494000B0FBF1F000F00F0004432C81BDE8FF87BD
:10495000001001400014014001468888C0F308009F
:104960007047C1F308028280704700BFFEE7000075
:104970000146481EB0F1807F01D301207047481ED8
:104980004FF0E0225061FF20044A107000204FF0E9
:10499000E0229061072010610020EFE723ED00E0A6
:1049A00003B401984100009850EAC12018BF0420C8
:1049B0004A0D18BF40F0010040F2FF72B2EB515FA8
:1049C00008BF40F00200012808BF052002B0704770
:1049D0004100080218BF04200A0E18BF40F0010071
:1049E0004FF07F4232EA010108BF40F00200012887
:1049F00008BF05207047000030B52DED048B81B055
:104A0000B0EE408AF0EE608A6A4651EC180B01F075
:104A10009BF800989FED329B7E300090002821DCAF
:104A200053EC192B51EC180B05F0B0FD1AD00021F6
:104A300040F608004FF00000044651EC180B05F05A
:104A400007FC08EE100A40F6080004EA00014FF0E7
:104A50000000B5EEC08AF1EE10FA04BF0220FCF7A8
:104A600020F82DE00098FF2830DB002108464FF0A9
:104A7000000000F4400553EC192B51EC180B05F025
:104A8000FBFE8CBF002401240220FCF70AF89FEDF6
:104A9000168A4DB1002C0CBF4FF400004FF480007B
:104AA000A84218BF9FED118A042108464FF000006C
:104AB000002C01BFB1EE480A01B0BDEC048B30BD43
:104AC000B0EE480A01B0BDEC048B30BD51EC180BC0
:104AD00005F0BEFB01B000EE100ABDEC048B30BD4A
:104AE00000000000000000000000807FFFFF7F7FCB
:104AF00010EE100A10B510EE901A4FF0684202EB5B
:104B000040032DED028BB3F1654F3CBF02EB410238
:104B1000B2F1654F7CD200BFC0F3C753C1F3C75297
:104B20009A1A1B2A09DD10F0004F14BF9FED6E0A80
:104B30009FED6E0ABDEC028B10BD12F11A0F1BDA4D
:104B400011F0004F09D010F0004F0CBF9FED680A24
:104B50009FED680ABDEC028B10BD80EE208A18EE36
:104B6000100AFFF735FF042808BF00F091F9B0EEF6
:104B7000480ABDEC028B10BD4200B2EB410F37D9A1
:104B800010F0004F19BFDFED5C1A9FED5C1ADFEDEE
:104B90005C1A9FED5C1AB0EE602A0A46F1EE400AFC
:104BA00080F00041B0EE420A10460A1A5200B2F1FB
:104BB000807F34D2484010F0004FDFED532A9FED44
:104BC000533A1DBFBEEE002A71EEE21A31EE431ACF
:104BD000B6EE002A04BF71EEA21A31EE031AF0EE0F
:104BE000402A42EE602A40EE020A82EEA02A18E035
:104BF00011F0004F04BF9FED461AF0EE411AD4D0D9
:104C000010F0004F1CBFDFED431A9FED431A00E088
:104C100026E004BFDFED411A9FED411AC5E780EEA3
:104C2000202A22EE020ADFED3F0ADFED3F2ABDEC2B
:104C3000028B40EE202ADFED3D0A40EE220ADFED36
:104C40003C2A40EE202ADFED3B0A40EE220A22EE0B
:104C5000000A00EE201A31EE020A30EE210A10BDE1
:104C60004FF07F42B2EB400F28BFB2EB410F05D2AD
:104C7000BDEC028BBDE8104000F006B940EA01032C
:104C80005B0008BF41F0FF410BD0B2EB400F08BF03
:104C9000B2EB410F08D120F0804000EE100A21F065
:104CA000804100EE901A37E7B2EB400F12BF5FEA87
:104CB000410240F0FF4001F000413FF42DAF4A00B7
:104CC00092EA40033FF528AF002AACBF9FED1A1AC5
:104CD0009FED1A1A20EE010A60EE810A10EE100A0A
:104CE00010EE901A18E70000DB0FC9BFDB0FC93FB9
:104CF000DB0F4940DB0F49C00000C9BF22AAFDB944
:104D00000000C93F22AAFD390060ED3EC30ACE373C
:104D100000000000000049C022AA7DBA00004940FE
:104D200022AA7D3A2DAD65BD8FB8D53D0FB511BE18
:104D300061C84C3EA8AAAABE0000804F0000802F88
:104D400030B583B00446FBF7A7FE9FED090B05467F
:104D50008DED000B002221466846FCF741F92846FC
:104D6000FBF79FFE9DED000B03B030BD000000007F
:104D7000000000000000000030B540F2FF742DED8F
:104D8000048BF0EE608A18EE901A85B0B0EE408A7F
:104D90009FED2B9B05468DED008B34EA115147D0DA
:104DA00053EC192B51EC180B05F0F0FB40D02A46C0
:104DB00051EC180B05F048FE41EC180B18EE900A68
:104DC0008DED008B34EA10501CD053EC192B51ECB4
:104DD000180B05F0DBFB2BD10220FBF762FE00F085
:104DE00043F810EE901A18EE900A8DED020B8DED3F
:104DF000008B61F31E0003909DED020B05B0BDEC2E
:104E0000048B30BD0220FBF74CFE00F01DF810EEC5
:104E1000901A18EE900A8DED020B8DED008B61F368
:104E20001E0003909DED020B05B0BDEC048B30BD60
:104E300005B0B0EE480AF0EE680ABDEC048B30BD58
:104E400000000000000000009FED050B10B553ECC2
:104E5000102B51EC100B05F011FC41EC100B10BDA8
:104E600000000000000000709FED050B10B553EC32
:104E7000102B51EC100B05F001FC41EC100B10BD98
:104E8000000000000000001030EE200A7047000013
:104E90009FED020A20EE000A70470000000000109B
:104EA00010B5044691ED000BFFF7A6FD84ED000A56
:104EB00010BD0000014609B900207047C8B220B1FA
:104EC000C8B20E4A105C401CF7E701F47F4028B1DD
:104ED0000A48C1F30722805C0930EEE701F47F0045
:104EE00028B10648C1F30742805C1130E5E703486A
:104EF00000EB116000781930DFE7000052AD0008C8
:104F000010B5044690ED000B0846FFF735FF84ED21
:104F1000000B10BD70B5044606480068FFF7CAFFD5
:104F2000451E054850F83500A0F1140625603046AE
:104F300070BD00005C010020D40A002030380A282F
:104F400001D2012070470020704700002DE9F04396
:104F50008BB005468946174600242DB94FF49B7245
:104F60001C491DA002F05CF92FB940F23712194913
:104F70001AA002F055F900E0641C285D202804D036
:104F8000285D092801D04C45F6D324B94FF0FF30F5
:104F90000BB0BDE8F0832146284601F0B7FD064678
:104FA00016B94FF0FF30F3E7282101A8FBF71AFDEF
:104FB00001AA4946284601F019FE8046B8F1000FC3
:104FC00002D14FF0FF30E3E701A94046B047386017
:104FD0000020DDE79AB00008636D640072657470AC
:104FE0000000000070B5044624B94F22134914A0F4
:104FF00002F016F9A06A0078232809D1A16AE069B5
:10500000884205D9D4E90A010844E16988420AD2F4
:10501000214610A002F0E0FCFBF75EF9054600BF58
:10502000002DFDD108E0A06A2030E169814203D85B
:1050300021460FA002F0D0FC70BD000030AF000888
:1050400074687265616420213D2052545F4E554C56
:105050004C0000007468726561643A2573207374B3
:1050600061636B206F766572666C6F770A00000073
:105070007761726E696E673A20257320737461637D
:105080006B20697320636C6F736520746F20656E8D
:1050900064206F6620737461636B20616464726561
:1050A00073732E0A000000002DE9FC5F04468B4656
:1050B00016461F46DDE90C9ADDE90E5804F114008E
:1050C0004060006000BF26626762C4F82890C4F8A0
:1050D0002CA02321D4E90A0202F077FED4E90A3C8D
:1050E00063441A1F174BD4E9080102F0BBFBE061CF
:1050F000202D04DBB022144914A002F091F83034C2
:10510000A57165710020A060C4F81480C4F81880EF
:1051100020602071A064E064303C00902346144A73
:105120002146019004F14C0004F086F900BF1148BB
:10513000006818B120460F490968884700BF002061
:10514000BDE8FC9F7D8B00087EAF00087072696F20
:1051500072697479203C2052545F5448524541444E
:105160005F5052494F524954595F4D415800000019
:105170006D900008800100202DE9F04704460E469E
:1051800017469846DDF8209084F80990607A20F060
:1051900001006072E66127620020A062C4F82480EA
:1051A000002506E004F1140101EBC50002F032FC19
:1051B0006D1C012DF6DBBDE8F08770B505460024B7
:1051C00006E005F1140101EBC40002F076FC641C5A
:1051D000012CF6DB70BD00BF704770B50446FBF7CD
:1051E0007BF80546A06F10B12046A16F884728467E
:1051F000FBF776F870BD00000146B5EEC00AF1EE8F
:1052000010FA05DDF1EEC00AC1ED000A002070477A
:10521000DFED030AC1ED000A4FF0FF30F7E70000B1
:105220000000000030B50C0E15686B1C136044556F
:10523000C1F3074415686B1C13604455C1F3072480
:1052400015686B1C1360445515686B1C1360415541
:1052500030BD10B502460B685B1CD35C0C68145D56
:1052600043EA042318B20B689B1C0B6010BD10B5F9
:1052700002460B68D35C1C060B685B1CD35C44EADB
:1052800003440B689B1CD35C44EA03230C68E41CB6
:10529000145D43EA04000B681B1D0B6010BD000089
:1052A00010B520A002F098FB2148017821A002F05F
:1052B00093FB1F48007800F0010010B123A002F01A
:1052C0008BFB1B48007800F0020010B122A002F016
:1052D00083FB1748007800F0040010B121A002F011
:1052E0007BFB1348007800F0080010B121A002F009
:1052F00073FB0F48007800F0100010B120A002F0FE
:105300006BFB0B48007800F0800030B108480F308C
:1053100001681DA002F060FB02E01FA002F05CFB30
:1053200010BD0000627573206661756C743A0A00E6
:1053300029ED00E05343425F434653525F424653D8
:10534000523A3078253032582000000049425553F7
:1053500045525220000000005052454349534552E7
:1053600052200000494D5052454349534552522066
:1053700000000000554E53544B455252200000008F
:1053800053544B45525220005343422D3E42464116
:10539000523A253038580A000A00000070B586B02D
:1053A00005460024686820F06040029004208DF8D3
:1053B0000C0000208DF80D00287800F00F008DF80B
:1053C0000E0000BF07E005F10800015D0DF10F00C0
:1053D0000155601C84B2287800F00F00A042F2DC76
:1053E00001A90D48FDF777FD0646002401E0601C89
:1053F00084B231460848FDF701FE18B940F6FF7047
:105400008442F4DB40F6FF70844202DB012006B0E8
:1054100070BD0020FBE700000068004010B502A04E
:1054200002F0DAFA002010BD1B5B324A1B5B480019
:1054300070B504460D4600F059FE002070BD70B5F1
:1054400004460D4601F052F8002070BD10B52DED58
:10545000028B82B00446B0EE408A0020019001AA7F
:10546000BDEEC80A10EE101A6846FFF7DBFE019980
:10547000CAB244F44070694600F004F802B0BDECD2
:10548000028B10BD7FB505460E461446082C00DD84
:1054900008249DF8000020F0200020308DF8000046
:1054A00001959DF8000020F010008DF800009DF897
:1054B000000064F303008DF800002246314602A884
:1054C000FBF7F7F96846FFF769FF7FBD10B5144891
:1054D000006890F82100C0F3400020B90020114975
:1054E0000870084610BD1048006838B180220E4888
:1054F00001680C48FBF79DFA0A48F3E701F074FBDA
:1055000020B10AA10748FBF73AF903E009A10548D1
:10551000FBF735F909A10348FBF7BFF90148E1E7BB
:10552000A8010020D40B0020AC0100206D7368207E
:105530000000000066696E73682000003E000000F5
:1055400010B502F033F810BD10B5044609480068E4
:1055500020B9A322084909A001F062FE05480068AD
:1055600090F8210064F341000249096881F82100A4
:1055700010BD0000A8010020BEB000087368656C73
:105580006C20213D2052545F4E554C4C00000000D1
:10559000024A1060024A1160704700009801002022
:1055A0009C0100207CB5002517491848FFF7F0FF43
:1055B0004FF40371012001F06DFE154908600846A3
:1055C000006820B913A002F007FA681E7CBD0A200B
:1055D0001E214FF400630022CDE90010134914A0EE
:1055E00003F0A3FA044600231A4613A108480068F2
:1055F00002F0C6FF0120FFF7A7FF1CB115B9204636
:1056000003F064FC0020E1E770C0000844BF00081C
:10561000A80100206E6F206D656D6F727920666F36
:1056200072207368656C6C0A000000004156000827
:10563000747368656C6C0000736872780000000019
:10564000FE48006890F8210020F00100401CFB4952
:10565000096881F82100FFF739FF054602F0BCF91F
:105660005EE2FFF76DFF0446002C00DA58E21B2CC7
:1056700005D10120F149096881F8200050E2EF4886
:10568000006890F8200001280DD15B2C05D1022084
:10569000EA49096881F8200042E20020E7490968E8
:1056A00081F82000BEE0E548006890F8200002285C
:1056B000F8D10020E149096881F82000412C36D159
:1056C000DE480068408C002807DDDC480068408C1C
:1056D000401EDA490968488404E00020D749096877
:1056E00048841DE2D5480068408C00EB8002D34816
:1056F0000068263000EB02115022D048006800F507
:10570000DB70FBF7D6F8CD48006800F5DB70FBF7DF
:105710005AF880B2C9490968A1F80802C74909685E
:10572000A1F80A02C548006804F0C6F9F8E1422C65
:1057300042D1C2480068418CC0480068808C401E3D
:10574000814207DABD480068408C401CBB490968AB
:1057500048840CE0B9480068808C38B1B7480068CC
:10576000808C401EB5490968488400E0D8E1B34800
:105770000068408C00EB8002B0480068263000EBE7
:1057800002115022AD48006800F5DB70FBF791F87C
:10579000AA48006800F5DB70FBF715F880B2A7494E
:1057A0000968A1F80802A5490968A1F80A02A348F6
:1057B000006804F081F9B3E1442C11D19F480068DE
:1057C000B0F80A0258B19EA002F006F99B480068A2
:1057D000B0F80A02401E99490968A1F80A029FE13F
:1057E000432C1FD195480068B0F80A029349096814
:1057F000B1F80812884214DA90480068B0F80A221A
:105800008E48006800F5DB70815C8EA002F0E4F841
:105810008A480068B0F80A02401C88490968A1F863
:105820000A027DE10CB1FF2C00D179E1092C21D1D4
:10583000002503E082A002F0CFF86D1C7F480068CD
:10584000B0F80A02A842F5DC7C48006800F5DB707D
:1058500004F016F97948006800F5DB70FAF7B3FF39
:1058600080B276490968A1F8080274490968A1F86C
:105870000A0255E17F2C01D0082C74D16F480068D2
:10588000B0F80A0200B94BE16C480068B0F80802B1
:10589000401E6A490968A1F8080268480068B0F823
:1058A0000A02401E65490968A1F80A0263480068B7
:1058B000B0F8080261490968B1F80A12884243DD6C
:1058C0005E4B1B68B3F808325C4E3668B6F80A6265
:1058D0009A1B5A4B1B68B3F80A325B1C574E36684A
:1058E00006F5DB769919554B1B68B3F80A62534BE2
:1058F0001B6803F5DB73F01802F046FA00214F48ED
:105900000068B0F808224D48006800F5DB7081544B
:105910004A480068B0F80A224848006800F5DB7081
:10592000111849A002F058F844480068B0F80A522B
:1059300003E043A002F050F86D1C40480068B0F846
:105940000802A842F5DA0CE041A002F045F8002177
:105950003A480068B0F808223848006800F5DB7063
:105960008154DDE0FFE70D2C01D00A2C31D1334802
:10597000006804F0B9F801F037F9012813D12F4875
:10598000006890F8210000F0010010B131A002F091
:1059900023F82A480068B0F808122848006800F583
:1059A000DB7001F07DF8FFF791FD054602F014F879
:1059B00051212248006800F5DB70FAF7F1FF002062
:1059C0001E490968A1F808021C490968A1F80A02E1
:1059D000A6E01A480068B0F80802502804DB00204E
:1059E00016490968A1F8080214480068B0F80A02CC
:1059F00012490968B1F80812884259DA0F4B1B683E
:105A0000B3F808320D4E3668B6F80A629A1B0B4B93
:105A10001B68B3F80A62094B1B6803F5DB73F118C6
:105A2000064B1B68B3F80A325B1C044E366806F559
:105A3000DB76981902F0A8F900480DE0A8010020D3
:105A400008000000256300000825732020080000DE
:105A5000082008000A0000000068B0F80A22314857
:105A6000006800F5DB7084542E48006890F821002F
:105A700000F0010058B12B480068B0F80A2229480C
:105A8000006800F5DB70111827A001F0A5FF25487C
:105A90000068B0F80A5204E0AFF25C0001F09CFF2D
:105AA0006D1C20480068B0F80802A842F4DC14E03D
:105AB0001C480068B0F808221A48006800F5DB703E
:105AC00084541848006890F8210000F0010020B1CB
:105AD0002146AFF2900001F07FFF002411480068DA
